:060000000A128A11122809
:10000800FE00030E83120313C9000408CA000A087D
:10001800CB007F08CC000A128A1137280A128A11ED
:10002800152883133B30FD000F30FE008C30FF0095
:10003800203084000A128A1505270A128A11A03076
:100048008400D2300A128A15B5260A128A11533052
:1000580084005C300A128A15B5260A128A118301B7
:100068000A128A15EE2E8C1E3A283B285928B930D8
:100078000A128A1110250A128A117B087C040319B6
:100088004628472859280A128A15D4260A128A119E
:10009800F401F40A01300A128A1196270A128A1109
:1000A8000A128A11E3230A128A11831203134C08D5
:1000B800FF004B088A004A088400490E8300FE0EA0
:1000C8007E0E090083120313BB007C08F1007B0835
:1000D800F0003B080A128A15A7270A128A117D0820
:1000E800F4007D080A128A1529270A128A11700855
:1000F800013EF50071080318013E003EF600831228
:1001080003133B080A128A1195200A128A118312D6
:1001180003133B080A128A1514270A128A110130A0
:100128000800F8007408FA007808F900AC287A0882
:10013800840083130008F7000130FF007F08FA07E6
:1001480079088400770880000130FF007F08F907EC
:100158000130F5020030031CF603F602750A031D90
:10016800B928760A031DB928BA289B280800F40084
:10017800F201F301D02872087407F10071088400B5
:1001880000080A128A15C8260A128A110130F207D5
:100198000318F30A0030F30772087407F1007108B6
:1001A800840083130008031DDA28DB28BF28080011
:1001B800F900F701F801F12877087907F6007608C1
:1001C800840000080A128A11B0260A128A11013026
:1001D800F7070318F80A0030F80777087907F600D8
:1001E8007608840083130008031DFB28FC28E028F8
:0201F8000800FD
:10020000FF1B0A2983137F1883170008840A031928
:10021000FF0A08007F087F398A000408840A03194E
:10022000FF0A820000340034C134C0348134C13448
:10023000403401340134C334C034033480340234D4
:100240004134C2340134C634C034063480340734F7
:100250004134C73400340534C134C5348134C43426
:10026000403404340134CC34C0340C3480340D3484
:100270004134CD3400340F34C134CF348134CE34E2
:1002800040340E3400340A34C134CA348134CB349F
:1002900040340B340134C934C03409348034083458
:1002A0004134C8340134D834C0341834803419345B
:1002B0004134D93400341B34C134DB348134DA3472
:1002C00040341A3400341E34C134DE348134DF3417
:1002D00040341F340134DD34C0341D3480341C34C8
:1002E0004134DC3400341434C134D4348134D53452
:1002F000403415340134D734C034173480341634C4
:100300004134D6340134D234C034123480341334FE
:100310004134D33400341134C134D1348134D03435
:10032000403410340134F034C0343034803431344B
:100330004134F13400343334C134F3348134F23491
:100340004034323400343634C134F6348134F73436
:10035000403437340134F534C034353480343434E7
:100360004134F43400343C34C134FC348134FD3441
:1003700040343D340134FF34C0343F3480343E34A3
:100380004134FE340134FA34C0343A3480343B34DE
:100390004134FB3400343934C134F9348134F83415
:1003A0004034383400342834C134E8348134E934FA
:1003B000403429340134EB34C0342B3480342A34B3
:1003C0004134EA340134EE34C0342E3480342F34D6
:1003D0004134EF3400342D34C134ED348134EC3405
:1003E00040342C340134E434C03424348034253493
:1003F0004134E53400342734C134E7348134E63401
:100400004034263400342234C134E2348134E334BD
:10041000403423340134E134C03421348034203476
:100420004134E0340134A034C03460348034613469
:100430004134A13400346334C134A3348134A23450
:100440004034623400346634C134A6348134A73475
:10045000403467340134A534C034653480346434A6
:100460004134A43400346C34C134AC348134AD3400
:1004700040346D340134AF34C0346F3480346E3462
:100480004134AE340134AA34C0346A3480346B341D
:100490004134AB3400346934C134A9348134A834D4
:1004A0004034683400347834C134B8348134B934D9
:1004B000403479340134BB34C0347B3480347A34F2
:1004C0004134BA340134BE34C0347E3480347F3495
:1004D0004134BF3400347D34C134BD348134BC3444
:1004E00040347C340134B434C034743480347534D2
:1004F0004134B53400347734C134B7348134B63440
:100500004034763400347234C134B2348134B3347C
:10051000403473340134B134C034713480347034B5
:100520004134B03400345034C13490348134913487
:100530004034513401349334C03453348034523411
:100540004134923401349634C034563480345734B4
:100550004134973400345534C13495348134943463
:100560004034543401349C34C0345C3480345D34C1
:1005700041349D3400345F34C1349F3481349E341F
:1005800040345E3400345A34C1349A3481349B345C
:1005900040345B3401349934C03459348034583495
:1005A0004134983401348834C03448348034493478
:1005B0004134893400344B34C1348B3481348A342F
:1005C00040344A3400344E34C1348E3481348F3454
:1005D00040344F3401348D34C0344D3480344C3485
:1005E00041348C3400344434C1348434813485340F
:1005F0004034453401348734C03447348034463481
:100600004134863401348234C0344234803443343B
:100610004134833400344134C134813481348034F2
:100620004034403483120313C7007B08F1007A087A
:10063000F00047080A128A15A7270A128A118312A6
:100640000313470884000530831380007C0A84006C
:100650000008FF00470A84007F0880007C08043EF1
:1006600084000008BB00BC013B08BC00BB017C0847
:10067000053E840000083B07C2000030031801302B
:100680003C07C3004708023E84004208BB003B070A
:100690008000C601A12B46184E2B4F2B792B023020
:1006A000F0000030F1004608BB00BC013B08F2003E
:1006B0003C08F3000A128A11F5250A128A11700803
:1006C00083120313BD003D077D07BE003E08840072
:1006D00083130008BF00840A0008C0004008FF0020
:1006E00046084707C1004108033E84007F08800098
:1006F0009D2B0230F0000030F1004608BB00BC0129
:100700003B08F2003C08F3000A128A11F5250A1290
:100710008A11700883120313BD003D077D07BE00D8
:100720003E08840083130008FF0046084707BF0007
:100730003F08033E84007F0880000130FF007F08EF
:10074000C6074308BC004208BB000310BB0DBC0D2C
:100750004608BD00BE013C083E02031DB12B3B080C
:100760003D02031CB42BB52B4B2B4608BB00BC0130
:100770003B08F0003C08F10047080A128A114C2798
:100780000A128A11710883120313C5007008C4008D
:1007900046084707BB003B088400440883138000D9
:1007A0000130FF007F08C60746084707BB003B082B
:1007B00084004508800047080A128A1514270A1287
:1007C0008A1101300800831603133A0883120313B9
:1007D000C80048030319ED2BEE2BF42B023048061A
:1007E000031DF32BF42B0E2C1930FA000030FB0004
:1007F000B930FC003930FD00A0300A128A117D2486
:100800000A128A11003A031D062C072C7C2C223078
:100810000A128A11DC200A128A117C2C0330480645
:100820000319132C142C1A2C04304806031D192C00
:100830001A2C342C1930FA000030FB00B930FC00BF
:100840003530FD00A0300A128A1112230A128A11D3
:10085000003A031D2C2C2D2C7C2C22300A128A11DC
:10086000DC200A128A117C2C053048060319392C29
:100870003A2C402C06304806031D3F2C402C582CA7
:100880001930FB000030FC00B930FD00A0300A1226
:100890008A1166200A128A11003A031D502C512C2D
:1008A0007C2C22300A128A11DC200A128A117C2C3C
:1008B0000F30480603195D2C5E2C642C103048065E
:1008C000031D632C642C7C2C1930FA000030FB00D3
:1008D000B930FC00A0300A128A115C260A128A1173
:1008E000003A031D742C752C7C2C22300A128A11BC
:1008F000DC200A128A117C2C080083120313C20028
:100900007B08F1007A08F00042080A128A15A7272E
:100910000A128A11831203134208840005308313DC
:1009200080007C0A84000008FF00420A84007F08DF
:1009300080007C08043E84000008BB00BC013B082A
:10094000BC00BB017C08053E840000083B07BD00DD
:100950000030031801303C07BE004208023E84000C
:100960003E08BC003D08BB000310BC0CBB0C0310D0
:10097000BC0CBB0C0310BC0CBB0C3B08013E800044
:10098000C101D52C41087D07BB003B08840000084D
:10099000FF0041084207BC003C08033E84007F087A
:1009A00080000130FF007F08C1074108BB00BC0187
:1009B0003E083C02031DDE2C3D083B02031CE12CDB
:1009C000E22CC22C4108BB00BC013B08F0003C08F3
:1009D000F10042080A128A114C270A128A11710882
:1009E00083120313C0007008BF0041084207BB0018
:1009F0003B0884003F08831380000130FF007F081C
:100A0000C10741084207BB003B0884004008800042
:100A100042080A128A1514270A128A1101300800A6
:100A200083120313BF002108F7002008F6003F08D7
:100A30000A128A1540270A128A11770883120313B3
:100A4000BE007608BD003D083E040319282D292D5F
:100A50003F2D0830A0000030A100DB013F088400DA
:100A60000530831300060319362D372D3A2DFB016F
:100A7000FC01862D0130FB000030FC00862D3D0876
:100A80003E04031D442D452D5F2D023053065404B2
:100A9000031D4B2D4C2D5F2D3F0A84000F30831317
:100AA00000060319542D552D5D2D3F0A840010308A
:100AB0000006031D5C2D5D2D5F2DDB01DB0A5B084D
:100AC0000319632D642D822D3D083E04031D692DFD
:100AD0006A2D822D073053065404031D702D712D8D
:100AE000822D3F08063E840083130008013EBB00B0
:100AF000003003180130BC003B08A0070318A10A0E
:100B00003C08A1073E08FC003D08FB0008008316D6
:100B1000031388010811881100300A128A15E02792
:100B20000A128A119C3083120313D200D630D100EE
:100B3000D10B982DD20B982D000003308312031394
:100B4000D2009730D100D10BA32DD20BA32D0330AF
:100B50000A128A1571270A128A111A308312031396
:100B6000D200F730D100D10BB32DD20BB32DB82D5D
:100B700003300A128A1571270A128A11C7308312AC
:100B80000313D100D10BC22D03300A128A1571272D
:100B90000A128A1102300A128A1571270A128A1162
:100BA00002300A128A1571270A128A1108300A12B5
:100BB0008A1571270A128A1100300A128A157127C4
:100BC0000A128A110C300A128A1571270A128A1128
:100BD00000300A128A1571270A128A1106300A1289
:100BE0008A1571270A128A110800F501F11FF92DE3
:100BF000FA2D012EF009F109F00A0319F10AF501A5
:100C0000F50AF31F042E052E0E2EF209F309F20A3F
:100C10000319F30A0130FF007F08F506F601F7011A
:100C2000700871040319152E162E4D2EF401F40AC6
:100C3000242E01300310F00DF10DFF3E031D1A2E7E
:100C40000130FF007F08F407F11F272E282E192EF0
:100C500001300310F60DF70DFF3E031D292E71081C
:100C60007302031D352E70087202031C382E392EB4
:100C7000402E7008F2027108031CF303F30276148D
:100C800001300310F10CF00CFF3E031D412E01302A
:100C9000F402031D4C2E4D2E282E75080319512EDB
:100CA000522E572EF609F709F60A0319F70A7708A4
:100CB000F1007608F000080083120313BF007B08E0
:100CC000F1007A08F0003F080A128A15A7270A12D5
:100CD0008A1183120313C0017C0884008313000867
:100CE000FF0040083F07BB003B0884007F088000EE
:100CF0000130FF007F08C00706304002031C812E30
:100D0000822E6C2E4008BB00BC013B08F0003C0862
:100D1000F1003F080A128A114C270A128A11710841
:100D200083120313BE007008BD0040083F07BB00DC
:100D30003B0884003D08831380000130FF007F08DA
:100D4000C00740083F07BB003B0884003E08800006
:100D50003F080A128A1514270A128A110130080066
:100D6000F50075080F39F3007508F039F4008312A7
:100D7000031308157408F10004300310F10CFF3E52
:100D8000031DBD2E71080A128A11DB270A128A116F
:100D90008312031388150330F2009730F100F10B32
:100DA000CF2EF20BCF2ED42E8312031388110330D3
:100DB000F2009730F100F10BDB2EF20BDB2EE02E70
:100DC00073080A128A11DB270A128A11831203138D
:100DD00088150330F2009730F100F10BED2EF20B85
:100DE000ED2EF22E8312031388110330F200973098
:100DF000F100F10BF92EF20BF92EFE2E0800F50092
:100E00007108FF3EF30072080318013EFF3EF40034
:100E1000831203135A087406031D102F5908730612
:100E2000031D132F142F352F59087507F30073086E
:100E300084000A128A15A2260A128A1183138000DE
:100E4000013083120313D9070318DA0A0030DA07D6
:100E500059087507F300730884008001D901DA018D
:100E60000130F1000030F2004B2F59087507F300F4
:100E7000730884000A128A15A2260A128A118313A3
:100E80008000013083120313D9070318DA0A0030F7
:100E9000DA07F101F2010800F700FF30F800FF3037
:100EA000F900832F77088400831300087806F60082
:100EB0000130FF007F08F70708300310F90CF80C29
:100EC000FF3E031D5D2F7608F200F3010310F20DC3
:100ED000F30D8130730783120313FF001230720782
:100EE00084000318FF0A0A128A1100210A128A11CB
:100EF000F4000A128A1100210A128A11F5007408FE
:100F0000F8067508F9060130F0020030031CF10301
:100F1000F102700A031D902F710A031D902F912F6B
:100F2000522F7908F1007808F0000800F6007603E7
:100F3000031D9B2F9C2FB82F74087F3EF900790862
:100F4000F50004300310F50CFF3E031DA22F7508B9
:100F5000F80079080F39F70078080A128A15572720
:100F60000A128A1177080A128A1557270A128A115B
:100F700002307606031DBD2FBE2FDA2F7408BF3E48
:100F8000F9007908F50004300310F50CFF3E031D4D
:100F9000C42F7508F80079080F39F70078080A128D
:100FA0008A1557270A128A1177080A128A155727B5
:100FB0000A128A110800F000701CDF2FE02FE42FC6
:100FC000831203130816E72F831203130812F01C71
:100FD000EA2FEB2FED2F8816EE2F8812701DF12FC0
:100FE000F22FF42F0817F52F0813F01DF82FF92F03
:0A0FF000FB2F8817FC2F8813080060
:101D4400831203131A08F000700808000A128A1597
:101D5400BD260A128A15080083160313081083127D
:101D640003130810080064008001840A04060319A0
:101D740000340406B62E0A128A15AE260A128A15F3
:101D84000A128A15C3270A128A150800F00083165E
:101D94000313981CCE2ECF2EC92E70088312031362
:101DA4009900080000300A128A1557270A128A156A
:101DB40001300A128A1557270A128A1508000030C2
:101DC4000A128A1571270A128A1501300A128A1515
:101DD40071270A128A1508000A128A15A8260A12FF
:101DE4008A150A128A1187250A128A150A128A1577
:101DF400E1260A128A15FD2E0A128A1112287E087B
:101E04008A007F0882000A128A1501270A128A159D
:101E14008000840A04087D0603190034FF0A0319AC
:101E2400FE0A052FF60083120313081476080A121B
:101E34008A11BB200A128A159F30F500212FF50B59
:101E4400202F242F252F8312031308100800F200DB
:101E54007208F300312F0130FF007F08F307730885
:101E6400840083130008031D382F392F2D2F720887
:101E74007302F000F101F01BF1030800FA00831271
:101E8400031308107708F2007608F1007A080A12A2
:101E94008A11FF260A128A157208F9007108F800DF
:101EA4007908F7007808F6000800F300831203139A
:101EB400081173080A128A11DB270A128A15831281
:101EC400031388150330F2009730F100F10B682FEB
:101ED400F20B682F6D2F83120313881108008312ED
:101EE4000313D000081150080A128A15E0270A12B9
:101EF4008A15831203138815033083120313CF004A
:101F04009730CE00CE0B842FCF0B842F8312031374
:101F140088110800083400345434723461346E3447
:101F240073346D3469347334733469346F346E3498
:101F340020346534723472346F3472340034733440
:101F4400003468340034CD342134F400F501B52F65
:101F540075087407F200720884008313800101304D
:101F6400FF007F08F5077508F200F301710873029A
:101F7400031DBE2F70087202031CC12FC22FAA2F8B
:101F84000800831603130717871783120313981780
:101F940083160313181218138312031318138316CA
:101FA40003139816831203131816831603131815B4
:101FB400103099008C160B178B170800831203132B
:101FC400CD004D1CE62FE72FE92F0816EA2F081243
:101FD400CD1CED2FEE2FF02F8816F12F88124D1DFA
:101FE400F42FF52FF72F0817F82F0813CD1DFB2F0B
:0C1FF400FC2FFE2F8817FF2F8813080019
:08400000FF3FFF3FFF3FFF3FC0
:02400E00FA3F77
:00000001FF
